{"abi":[{"type":"constructor","inputs":[{"name":"initialOwner","type":"address","internalType":"address"}],"stateMutability":"nonpayable"},{"type":"function","name":"commitDigest","inputs":[{"name":"gameId","type":"bytes32","internalType":"bytes32"},{"name":"epoch","type":"uint64","internalType":"uint64"},{"name":"commitType","type":"uint8","internalType":"enum VedhStateAnchor.CommitType"},{"name":"gameStateHash","type":"bytes32","internalType":"bytes32"},{"name":"boardstateHash","type":"bytes32","internalType":"bytes32"},{"name":"nonce","type":"uint64","internalType":"uint64"}],"outputs":[{"name":"","type":"bytes32","internalType":"bytes32"}],"stateMutability":"view"},{"type":"function","name":"commitState","inputs":[{"name":"gameId","type":"bytes32","internalType":"bytes32"},{"name":"commitType","type":"uint8","internalType":"enum VedhStateAnchor.CommitType"},{"name":"gameStateHash","type":"bytes32","internalType":"bytes32"},{"name":"commits","type":"tuple[]","internalType":"struct VedhStateAnchor.CommitInput[]","components":[{"name":"player","type":"address","internalType":"address"},{"name":"boardstateHash","type":"bytes32","internalType":"bytes32"},{"name":"signature","type":"bytes","internalType":"bytes"}]}],"outputs":[],"stateMutability":"nonpayable"},{"type":"function","name":"domainSeparator","inputs":[],"outputs":[{"name":"","type":"bytes32","internalType":"bytes32"}],"stateMutability":"view"},{"type":"function","name":"games","inputs":[{"name":"","type":"bytes32","internalType":"bytes32"}],"outputs":[{"name":"epoch","type":"uint64","internalType":"uint64"},{"name":"lastGameStateHash","type":"bytes32","internalType":"bytes32"},{"name":"lastCommitBlock","type":"uint64","internalType":"uint64"},{"name":"exists","type":"bool","internalType":"bool"}],"stateMutability":"view"},{"type":"function","name":"getPlayers","inputs":[{"name":"gameId","type":"bytes32","internalType":"bytes32"}],"outputs":[{"name":"","type":"address[]","internalType":"address[]"}],"stateMutability":"view"},{"type":"function","name":"lastPlayerCommit","inputs":[{"name":"","type":"bytes32","internalType":"bytes32"},{"name":"","type":"address","internalType":"address"}],"outputs":[{"name":"","type":"bytes32","internalType":"bytes32"}],"stateMutability":"view"},{"type":"function","name":"nonces","inputs":[{"name":"","type":"bytes32","internalType":"bytes32"},{"name":"","type":"address","internalType":"address"}],"outputs":[{"name":"","type":"uint64","internalType":"uint64"}],"stateMutability":"view"},{"type":"function","name":"owner","inputs":[],"outputs":[{"name":"","type":"address","internalType":"address"}],"stateMutability":"view"},{"type":"function","name":"registerGame","inputs":[{"name":"gameId","type":"bytes32","internalType":"bytes32"},{"name":"players","type":"address[]","internalType":"address[]"}],"outputs":[],"stateMutability":"nonpayable"},{"type":"function","name":"transferOwnership","inputs":[{"name":"newOwner","type":"address","internalType":"address"}],"outputs":[],"stateMutability":"nonpayable"},{"type":"event","name":"CommitMade","inputs":[{"name":"gameId","type":"bytes32","indexed":true,"internalType":"bytes32"},{"name":"epoch","type":"uint64","indexed":true,"internalType":"uint64"},{"name":"commitType","type":"uint8","indexed":false,"internalType":"enum VedhStateAnchor.CommitType"},{"name":"gameStateHash","type":"bytes32","indexed":false,"internalType":"bytes32"},{"name":"player","type":"address","indexed":true,"internalType":"address"},{"name":"playerCommit","type":"bytes32","indexed":false,"internalType":"bytes32"},{"name":"nonce","type":"uint64","indexed":false,"internalType":"uint64"},{"name":"blockTimestamp","type":"uint256","indexed":false,"internalType":"uint256"}],"anonymous":false},{"type":"event","name":"GameRegistered","inputs":[{"name":"gameId","type":"bytes32","indexed":true,"internalType":"bytes32"},{"name":"players","type":"address[]","indexed":false,"internalType":"address[]"}],"anonymous":false},{"type":"event","name":"OwnershipTransferred","inputs":[{"name":"previousOwner","type":"address","indexed":true,"internalType":"address"},{"name":"newOwner","type":"address","indexed":true,"internalType":"address"}],"anonymous":false}],"bytecode":{"object":"0x60c0346101a2576001600160401b0390601f61111538819003918201601f19168301929190848411838510176101a65781602092849260409687528339810103126101a257516001600160a01b038116908190036101a257801561016e575f80546001600160a01b0319168217815590817f8be0079c531659141344cd1fd0a4f28419497f9722a3daafe3b4186f6b6457e08180a34660a052600f602083516100a7816101ba565b828152016e2b32b23429ba30ba32a0b731b437b960891b815220916001602082516100d1816101ba565b82815201603160f81b8152209181519260208401947f8b73c3c69bb8fe3d512ecc4cf759cc79239f7b179b0ffacaa9a75d522b39400f86528385015260608401524660808401523060a084015260a0835260c08301948386109086111761015a5750839052519020608052610f3f90816101d6823960805181610de6015260a05181610cd90152f35b634e487b7160e01b81526041600452602490fd5b815162461bcd60e51b815260206004820152600d60248201526c34b73b30b634b21037bbb732b960991b6044820152606490fd5b5f80fd5b634e487b7160e01b5f52604160045260245ffd5b604081019081106001600160401b038211176101a65760405256fe60806040526004361015610011575f80fd5b5f3560e01c80632a9c6561146106be5780633eb0a3921461039257806386e2b63f146103455780638da5cb5b1461031e57806397acfef6146102a2578063af1e19d9146101f6578063ba51cb97146101b2578063f2fde38b1461010b578063f579f882146100ad5763f698da2514610087575f80fd5b346100a9575f3660031901126100a95760206100a1610cd7565b604051908152f35b5f80fd5b346100a95760203660031901126100a9576004355f526001602052608060405f2060ff6001600160401b03918260018201541692600360028301549201549160405194855260208501528116604084015260401c1615156060820152f35b346100a95760203660031901126100a9576004356001600160a01b03818116918290036100a9575f54908116610142813314610ba9565b821561017d5782907f8be0079c531659141344cd1fd0a4f28419497f9722a3daafe3b4186f6b6457e05f80a36001600160a01b031916175f55005b60405162461bcd60e51b815260206004820152600d60248201526c34b73b30b634b21037bbb732b960991b6044820152606490fd5b346100a95760403660031901126100a9576101cb610b7f565b6004355f52600360205260405f209060018060a01b03165f52602052602060405f2054604051908152f35b346100a9576020806003193601126100a9576004355f5260019081815260405f2091604051918281855491828152019081955f52825f20905f5b8181106102865750505083610246910384610c2b565b6040519281840190828552518091526040840194915f5b82811061026a5785870386f35b83516001600160a01b031687529581019592810192840161025d565b82546001600160a01b0316845292840192918501918501610230565b346100a95760c03660031901126100a9576001600160401b0360243581811681036100a9576044359060028210156100a95760a43592831683036100a9576020926103166100a1936103086040519384928884019660843591606435916004358a610c60565b03601f198101835282610c2b565b519020610e08565b346100a9575f3660031901126100a9575f546040516001600160a01b039091168152602090f35b346100a95760403660031901126100a95761035e610b7f565b6004355f52600260205260405f209060018060a01b03165f5260205260206001600160401b0360405f205416604051908152f35b346100a95760403660031901126100a957602480356001600160401b0381116100a9576103c3903690600401610b4f565b90916103d960018060a01b035f54163314610ba9565b60043515610689578115610658576004355f52600160205260ff600360405f20015460401c16610626576040519060a082018281106001600160401b0382111761061257806040526001600160401b038411610612578360051b6104406020820183610c2b565b848252850160c084013682116100a95786905b8282106105fa5750505082525f60208301525f60408301525f6060830152600160808301526004355f52600160205260405f209082518051916001600160401b0383116105e7576801000000000000000083116105e7575082548284558083106105c1575b50602001825f5260205f205f5b8381106105a45750505050806001600392016001600160401b036020850151166001600160401b03198254161790556040830151600282015501906001600160401b0360608201511668ff000000000000000060808454930151151560401b169168ffffffffffffffffff19161717905560405190806020830160208452526040820192905f5b81811061057e576004357f850435d7563c5be8a58478df6cc65f29f3bb02e695a0d9d5f03af83fb27ad9ed85870386a2005b909193602080600192838060a01b0361059689610b95565b16815201950192910161054c565b82516001600160a01b0316818301556020909201916001016104c5565b835f528260205f2091820191015b8181106105dc57506104b8565b5f81556001016105cf565b634e487b7160e01b5f9081526041600452fd5b6020809161060784610b95565b815201910190610453565b50634e487b7160e01b5f9081526041600452fd5b606490600b6040519162461bcd60e51b8352602060048401528201526a67616d652065786973747360a81b6044820152fd5b606490600a6040519162461bcd60e51b835260206004840152820152696e6f20706c617965727360b01b6044820152fd5b606490600e6040519162461bcd60e51b8352602060048401528201526d1a5b9d985b1a590819d85b59525960921b6044820152fd5b346100a95760803660031901126100a95760026024351015806100a9576064356001600160401b0381116100a9576106fa903690600401610b4f565b9061070f60018060a01b035f54163314610ba9565b6004355f52600160205260405f2091600383019360ff855460401c1615610b195783548203610add576001600160401b03600185015416925f5b8381106107985786866001600160401b0361076b886044356002850155610cbf565b169060016001600160401b031992838284015416179101556001600160401b034316908254161790555f80f35b605e19823603018160051b83013512156100a9576107bd8160051b8301358301610c4c565b8654821015610ac9575f878152602090208201546001600160a01b03908116911603610a8c576004355f9081526002602052604090206001600160a01b0361080d600584901b8501358501610c4c565b165f5260205260405f205492610a78576108576040516020810190610316816103086001600160401b03891660208860051b8a01358a0101356044358d602435906004358a610c60565b600582901b830135830136819003601e190160409091013512156100a957600582901b83013583016040810135018035906001600160401b0382116100a95760200181360381136100a9576108ab92610e3f565b6001600160a01b036108c5600584901b8501358501610c4c565b166001600160a01b0390911603610a3f57604051602081019060208360051b85013585010135825260443560408201526001600160401b0360c01b8560c01b1660608201526048815261091781610be1565b519020926004355f52600360205260405f2060018060a01b036109418460051b8601358601610c4c565b165f526020528360405f205561095f6001600160401b038216610cbf565b6004355f9081526002602052604090206001600160a01b03610989600586901b8701358701610c4c565b165f526020526001600160401b0360405f2091166001600160401b03198254161790558560018060a01b036109c58460051b8601358601610c4c565b16916001600160401b03604051915f976024358452604435602085015260408401521660608201524260808201527f6ced220d021c13bd083dd7c31f946ca375bc85a775b575a3e59f677b15521d8260a060043592a45f198114610a2b57600101610749565b634e487b7160e01b5f52601160045260245ffd5b60405162461bcd60e51b8152602060048201526011602482015270696e76616c6964207369676e617475726560781b6044820152606490fd5b634e487b7160e01b5f52602160045260245ffd5b60405162461bcd60e51b81526020600482015260156024820152740c6dedadad2e840dee4c8cae440dad2e6dac2e8c6d605b1b6044820152606490fd5b634e487b7160e01b5f52603260045260245ffd5b60405162461bcd60e51b81526020600482015260146024820152731a5b9d985b1a590818dbdb5b5a5d0818dbdd5b9d60621b6044820152606490fd5b60405162461bcd60e51b815260206004820152600e60248201526d19d85b59481b9bdd08199bdd5b9960921b6044820152606490fd5b9181601f840112156100a9578235916001600160401b0383116100a9576020808501948460051b0101116100a957565b602435906001600160a01b03821682036100a957565b35906001600160a01b03821682036100a957565b15610bb057565b60405162461bcd60e51b81526020600482015260096024820152683737ba1037bbb732b960b91b6044820152606490fd5b608081019081106001600160401b03821117610bfc57604052565b634e487b7160e01b5f52604160045260245ffd5b604081019081106001600160401b03821117610bfc57604052565b90601f801991011681019081106001600160401b03821117610bfc57604052565b356001600160a01b03811681036100a95790565b9490969591929360ff60c09560e08801997fe12b543539de0561f3172f73bf3403d70669d8ef96bc360e3066f3c174dc3740895260208901526001600160401b038096166040890152166060870152608086015260a085015216910152565b9060016001600160401b0380931601918211610a2b57565b7f00000000000000000000000000000000000000000000000000000000000000004614610de4576e2b32b23429ba30ba32a0b731b437b960891b6020604051610d1f81610c10565b600f81520152603160f81b6020604051610d3881610c10565b60018152015260405160208101907f8b73c3c69bb8fe3d512ecc4cf759cc79239f7b179b0ffacaa9a75d522b39400f82527fac464c52f00537176b63a67861ab5324e7d97fb6bd0de582ceab2cf96f6d149d60408201527fc89efdaa54c0f20c7adf612882df0950f5a951637e0307cdcb4c672f298b8bc660608201524660808201523060a082015260a0815260c081018181106001600160401b03821117610bfc5760405251902090565b7f000000000000000000000000000000000000000000000000000000000000000090565b610e10610cd7565b9060405190602082019261190160f01b84526022830152604282015260428152610e3981610be1565b51902090565b91604103610f035760208101359160408201355f1a601b8110610ee3575b60ff1690601b82141580610ed8575b610ed0577f7fffffffffffffffffffffffffffffff5d576e7357a4501ddfe92f46681b20a08411610ed0576020935f9360809360405193845286840152356040830152606082015282805260015afa15610ec5575f5190565b6040513d5f823e3d90fd5b505050505f90565b50601c821415610e6c565b601b0160ff811115610e5d57634e487b7160e01b5f52601160045260245ffd5b50505f9056fea2646970667358221220f3cb409d84646624fe3d840f9f2acd95e23fff4ca860b814300f7b967bc27eca64736f6c63430008140033","linkReferences":{}},"methodIdentifiers":{"commitDigest(bytes32,uint64,uint8,bytes32,bytes32,uint64)":"97acfef6","commitState(bytes32,uint8,bytes32,(address,bytes32,bytes)[])":"2a9c6561","domainSeparator()":"f698da25","games(bytes32)":"f579f882","getPlayers(bytes32)":"af1e19d9","lastPlayerCommit(bytes32,address)":"ba51cb97","nonces(bytes32,address)":"86e2b63f","owner()":"8da5cb5b","registerGame(bytes32,address[])":"3eb0a392","transferOwnership(address)":"f2fde38b"},"id":0}